S021000043533132324120437573746F6D204C61622050726F6A6563742E73726563D6
S113000045C0000061C000005FC000005DC000008A
S11300105BC0000059C0000057C0000055C000007C
S113002053C0000051C000004FC000004DC000008C
S11300304BC0000030C5000047C0000045C00000B0
S113004043C0000041C000003FC000003DC00000AC
S11300503BC0000039C0000037C0000035C00000BC
S113006033C0000031C000002FC000002DC00000CC
S11300702BC0000029C0000027C0000025C00000DC
S113008023C0000021C000001FC0000011241FBEB7
S1130090CFEFD0E4DEBFCDBF11E0A0E0B1E0E8EAED
S11300A0F2E100E00BBF02C007900D92A430B1074B
S11300B0D9F721E0A4E0B1E001C01D92AD31B2074F
S11300C0E1F7FFD60C9452099BCFCF93DF93CDB7C2
S11300D0DEB78CE790E020910501FC0120838AE7DC
S11300E090E020ECFC0120830000DF91CF91089583
S11300F0CF93DF931F92CDB7DEB789838981883090
S113010058F48981809305010CD08CE790E020910C
S11301100501FC012083D9DF00000F90DF91CF910E
S11301200895CF93DF93CDB7DEB78AE790E02FEF42
S1130130FC0120830000DF91CF910895CF93DF93DA
S1130140CDB7DEB788E790E0FC01808191819C0106
S1130150A1EFB0EF0E9443090024880F991F001CEF
S1130160880F991F001C892F902DDF91CF9108953E
S1130170CF93DF93CDB7DEB760970FB6F894DEBFA9
S11301800FBECDBF988B8F878F859889813091055D
S113019081F08230910541F0892B81F481E090E077
S11301A0988B8F8792DF0DC082E090E0988B8F87C9
S11301B008C081E090E0988B8F8703C0188A1F865F
S11301C000008F8598898130910549F0823091052E
S11301D021F0892B09F478C078C0A3DF76C080E0D1
S11301E087DF80E090E0A0E8BFE389839A83AB8354
S11301F0BC8320E030E04AEF54E469817A818B814A
S11302009C81B6D7DC01CB018D839E83AF83B887F5
S113021020E030E040E85FE36D817E818F81988546
S113022026D788232CF481E090E09A8789873BC005
S113023020E03FEF4FE757E46D817E818F81988501
S113024093D718163CF520E030E040E251E4698190
S11302507A818B819C818CD7DC01CB01BC01CD01DF
S11302600AD7DC01CB019A8789870FC088EC90E01C
S11302709C878B878B859C850197F1F79C878B875F
S113028089859A8501979A87898789859A85892B93
S113029069F713C06D817E818F819885ECD6DC016E
S11302A0CB019A87898789859A859E878D878D85D5
S11302B09E850197F1F79E878D8740DF982F8FE009
S11302C0891B8093040101C000008F859889609682
S11302D00FB6F894DEBF0FBECDBFDF91CF91089566
S11302E00F931F93CF93DF93CDB7DEB7C854D109D3
S11302F00FB6F894DEBF0FBECDBF9E01295B3F4F02
S1130300F90191838083CE01895B9F4FFC01808139
S113031091818130910581F08230910509F494C274
S1130320892B09F09AC2CE01895B9F4F21E030E00E
S1130330FC013183208398C2CE01895B9F4F21E069
S113034030E0FC013183208381E0D2DE80E090E064
S1130350A0E8BFE389839A83AB83BC8320E030E0C9
S11303604AEF54E469817A818B819C8101D7DC0155
S1130370CB019E01235C3F4FF90180839183A283CB
S1130380B38320E030E040E85FE3CE01CD96FC018A
S113039060817181828193816AD688234CF4CE0175
S11303A08F5B9F4F21E030E0FC013183208363C0E9
S11303B020E03FEF4FE757E4CE01CD96FC0160818A
S11303C0718182819381D0D618160CF044C020E04C
S11303D030E040E251E469817A818B819C81C8D606
S11303E0DC01CB018E010F5B1F4FBC01CD0143D655
S11303F0DC01CB01F8019183808324C0CE018D5BA5
S11304009F4F28EC30E0FC0131832083CE018D5BCB
S11304109F4FFC01808191810197F1F79E012D5B33
S11304203F4FF90191838083CE018F5B9F4F9E01E3
S11304302F5B3F4FF9012081318121503109FC01AB
S113044031832083CE018F5B9F4FFC01808191819A
S1130450892BA1F62AC08E010F5B1F4FCE01CD96CA
S1130460FC01608171818281938105D6DC01CB011D
S1130470F80191838083CE018B5B9F4F9E012F5B9C
S11304803F4FF90120813181FC0131832083CE016A
S11304908B5B9F4FFC01808191810197F1F79E0155
S11304A02B5B3F4FF9019183808348DE982F8FE0C7
S11304B0891B8093080182E01BDE80E090E0A0E8C5
S11304C0BFE38D839E83AF83B88720E030E04AEF9B
S11304D054E46D817E818F8198854AD6DC01CB01FD
S11304E08BAB9CABADABBEAB20E030E040E85FE350
S11304F06BA97CA98DA99EA9BAD588232CF481E087
S113050090E098AF8FAB3BC020E03FEF4FE757E45C
S11305106BA97CA98DA99EA927D618163CF520E0C5
S113052030E040E251E46D817E818F81988520D650
S1130530DC01CB01BC01CD019ED5DC01CB0198AF20
S11305408FAB0FC088EC90E09AAF89AF89AD9AADBC
S11305500197F1F79AAF89AF8FA998AD019798AF3A
S11305608FAB8FA998AD892B69F713C06BA97CA9B0
S11305708DA99EA980D5DC01CB0198AF8FAB8FA943
S113058098AD9CAF8BAF8BAD9CAD0197F1F79CAF51
S11305908BAFD4DD982F8FE0891B80930A0180E014
S11305A090E0A0E8BFE389879A87AB87BC8720E007
S11305B030E04AEF54E469857A858B859C85D8D5EB
S11305C0DC01CB0189A79AA7ABA7BCA720E030E048
S11305D040E85FE369A57AA58BA59CA548D5882347
S11305E02CF481E090E09EA78DA73BC020E03FEF74
S11305F04FE757E469A57AA58BA59CA5B5D5181630
S11306003CF520E030E040E251E469857A858B8551
S11306109C85AED5DC01CB01BC01CD012CD5DC0120
S1130620CB019EA78DA70FC088EC90E098AB8FA755
S11306308FA598A90197F1F798AB8FA78DA59EA5D3
S113064001979EA78DA78DA59EA5892B69F713C039
S113065069A57AA58BA59CA50ED5DC01CB019EA727
S11306608DA78DA59EA59AAB89AB89A99AA9019757
S1130670F1F79AAB89AB84E03BDD60DD982F8FE026
S1130680891B8093090180E090E0A0E8BFE38D8797
S11306909E87AF87B88B20E030E04AEF54E46D8545
S11306A07E858F85988964D5DC01CB018F8F98A3D3
S11306B0A9A3BAA320E030E040E85FE36F8D78A1FE
S11306C089A19AA1D4D488232CF481E090E09CA33E
S11306D08BA33BC020E03FEF4FE757E46F8D78A139
S11306E089A19AA141D518163CF520E030E040E2FA
S11306F051E46D857E858F8598893AD5DC01CB01DF
S1130700BC01CD01B8D4DC01CB019CA38BA30FC0E9
S113071088EC90E09EA38DA38DA19EA10197F1F793
S11307209EA38DA38BA19CA101979CA38BA38BA1BA
S11307309CA1892B69F713C06F8D78A189A19AA117
S11307409AD4DC01CB019CA38BA38BA19CA198A779
S11307508FA38FA198A50197F1F798A78FA383E0A2
S1130760C7DC80E090E0A0E8BFE3898B9A8BAB8B79
S1130770BC8B20E030E04AEF54E469897A898B89A4
S11307809C89F6D4DC01CB018D8B9E8BAF8BB88F0B
S113079020E030E040E85FE36D897E898F89988DA1
S11307A066D488232CF481E090E09A8F898F3BC033
S11307B020E03FEF4FE757E46D897E898F89988D5C
S11307C0D3D418163CF520E030E040E251E46989C6
S11307D07A898B899C89CCD4DC01CB01BC01CD0105
S11307E04AD4DC01CB019A8F898F0FC088EC90E04A
S11307F09C8F8B8F8B8D9C8D0197F1F79C8F8B8FAA
S1130800898D9A8D01979A8F898F898D9A8D892BDD
S113081069F713C06D897E898F89988D2CD4DC018A
S1130820CB019A8F898F898D9A8D9E8F8D8F8D8D17
S11308309E8D0197F1F79E8F8D8F80DC982F8FE02E
S1130840891B80930B0110C0CE01895B9F4F22E06E
S113085030E0FC013183208307C0CE01895B9F4FC8
S1130860FC01118210820000CE01895B9F4FFC01C4
S1130870808191818130910531F082309105A1F020
S1130880892B11F11AC080910D01282F30E080913D
S11308900C01882F90E0982F8827822B932B90931C
S11308A007018093060111C0CE01895B9F4F22E0AE
S11308B030E0FC013183208308C0CE01895B9F4F67
S11308C0FC011182108201C00000CE01895B9F4FA0
S11308D0FC0180819181C85BDF4F0FB6F894DEBFC5
S11308E00FBECDBFDF91CF911F910F9108950F934C
S11308F01F93CF93DF93CDB7DEB710921401BEC020
S1130900209116013091170180911401482F50E075
S11309106BE0649FC001659F900D1124820F931FAB
S1130920FC012581368147815085609116017091C3
S1130930170180911401E82FF0E0ABE0AE9FC001F5
S1130940AF9F900D1124860F971FFC018181928126
S1130950A381B481281739074A075B0708F452C0FA
S1130960209116013091170180911401482F50E015
S11309706BE0649FC001659F900D11248901080FED
S1130980191F209116013091170180911401482FED
S113099050E06BE0649FC001659F900D1124820FAD
S11309A0931FFC0121853285409116015091170156
S11309B080911401682F70E0EBE0E69FC001E79F8F
S11309C0900D1124840F951FFC018081082E000CCA
S11309D0990BF9010995F801808320911601309152
S11309E0170180911401482F50E06BE0649FC0010F
S11309F0659F900D1124820F931FFC0115821682AE
S1130A0017821086209116013091170180911401EC
S1130A10482F50E06BE0649FC001659F900D112446
S1130A20B901680F791F2091160130911701809147
S1130A301401482F50E0EBE0E49FC001E59F900DC6
S1130A401124820F931FFC01258136814781508533
S1130A508091000190910101A0910201B0910301E4
S1130A60820F931FA41FB51FFB0185839683A78361
S1130A70B087809114018F5F8093140190911401C9
S1130A8080911201981708F43BCF0000DF91CF91B9
S1130A901F910F9108951F920F9200905F000F9283
S1130AA0112400905B000F922F933F934F935F9319
S1130AB06F937F938F939F93AF93BF93EF93FF9322
S1130AC0CF93DF93CDB7DEB780910E0190910F01E4
S1130AD0A0911001B09111010197A109B10980936E
S1130AE00E0190930F01A0931001B0931101809116
S1130AF00E0190910F01A0911001B0911101892B69
S1130B008A2B8B2B89F4F3DE8091000190910101F3
S1130B10A0910201B091030180930E0190930F0103
S1130B20A0931001B09311010000DF91CF91FF91C8
S1130B30EF91BF91AF919F918F917F916F915F9151
S1130B404F913F912F910F9000925B000F90009274
S1130B505F000F901F901895CF93DF9300D000D0C3
S1130B60CDB7DEB769837A838B839C8389819A812D
S1130B70AB81BC818093000190930101A093020199
S1130B80B09303018091000190910101A0910201B1
S1130B90B091030180930E0190930F01A093100173
S1130BA0B093110100000F900F900F900F90DF9100
S1130BB0CF910895CF93DF93CDB7DEB781E890E06E
S1130BC02BE0FC01208388E890E02DE730E0FC0175
S1130BD0318320838FE690E022E0FC01208384E8C7
S1130BE090E0FC011182108280910001909101013A
S1130BF0A0910201B091030180930E0190930F0123
S1130C00A0931001B09311018FE590E02FE530E03F
S1130C10F90120812068FC0120830000DF91CF913D
S1130C200895CF93DF9300D0CDB7DEB79A8389833D
S1130C3089819A818130910551F082309105D9F0F2
S1130C40892B69F581E090E09A8389832BC086E241
S1130C5090E0FC018081882F90E081709927892B96
S1130C6029F482E090E09A8389831CC081E090E0BB
S1130C709A83898317C086E290E0FC018081882FE3
S1130C8090E081709927892B29F081E090E09A8384
S1130C90898308C082E090E09A83898303C01A8222
S1130CA01982000089819A818130910531F0823066
S1130CB0910549F0892B69F00DC0809113018E7F55
S1130CC08093130107C08091130181608093130105
S1130CD001C0000089819A810F900F90DF91CF911C
S1130CE00895CF93DF9300D0CDB7DEB79A8389837D
S1130CF089819A818130910551F082309105D9F032
S1130D00892B69F581E090E09A8389832BC086E280
S1130D1090E0FC018081882F90E082709927892BD4
S1130D2029F482E090E09A8389831CC081E090E0FA
S1130D309A83898317C086E290E0FC018081882F22
S1130D4090E082709927892B29F081E090E09A83C2
S1130D50898308C082E090E09A83898303C01A8261
S1130D601982000089819A818130910531F08230A5
S1130D70910549F0892B69F00DC0809113018D7F95
S1130D808093130107C08091130182608093130143
S1130D9001C0000089819A810F900F90DF91CF915B
S1130DA00895CF93DF9300D0CDB7DEB79A838983BC
S1130DB089819A818130910591F18230910509F4FC
S1130DC03FC0892BD1F581E290E0FC01108282E2E0
S1130DD090E02FEFFC01208384E290E02FEFFC01F0
S1130DE0208385E290E0FC01108287E290E0FC0120
S1130DF0108288E290E02FEFFC0120838AE290E0E9
S1130E002FEFFC0120838BE290E0FC01108282E34F
S1130E108093150181E090E09A83898312C08091C8
S1130E201501882329F482E090E09A83898309C01C
S1130E3081E090E09A83898304C01A82198201C0F8
S1130E40000089819A818130910551F082309105A9
S1130E5081F1892B59F581E090E09A8389832AC036
S1130E6085E290E03091040120911301322B20910E
S1130E700801322B20910901322B20910B01322BD6
S1130E8020910A01232BFC01208388E790E0FC01D8
S1130E9080819181892B31F4809115018150809357
S1130EA0150108C082E38093150104C01A821982D7
S1130EB001C0000089819A810F900F90DF91CF913A
S1130EC00895CF93DF93CDB7DEB7C057D1090FB6DE
S1130ED0F894DEBF0FBECDBF84E689831B8289816F
S1130EE0882F90E0A0E0B0E088879987AA87BB8725
S1130EF08981882F90E0A0E0B0E08C839D83AE834D
S1130F00BF8381ED96E09D878C871E8688EB90E0F9
S1130F10988F8F8B8981882F90E0A0E0B0E08B8B35
S1130F209C8BAD8BBE8B8981882F90E0A0E0B0E0D4
S1130F308F87988BA98BBA8B8981882F90E0A0E04A
S1130F40B0E08093000190930101A0930201B0935B
S1130F500301198E8981882F90E0A0E0B0E08E8F84
S1130F609F8FA8A3B9A38981882F90E0A0E0B0E067
S1130F708A8F9B8FAC8FBD8F81E196E09BA38AA360
S1130F801CA28981882F90E0A0E0B0E089A79AA7ED
S1130F90ABA7BCA78981882F90E0A0E0B0E08DA327
S1130FA09EA3AFA3B8A781E796E09EA78DA71FA62F
S1130FB08981882F90E0A0E0B0E08CAB9DABAEAB14
S1130FC0BFAB8981882F90E0A0E0B0E088AB99ABFB
S1130FD0AAABBBAB80E791E099AF88AF8981882F3A
S1130FE090E0A0E0B0E0BC01CD01B6DDE3DD8BE034
S1130FF0FE013396DE01DA9601900D928A95E1F7AF
S1131000CE018B5B9F4F2BE0FE013E96DC010190ED
S11310100D922A95E1F7CE01805B9F4F2BE0FE01F4
S11310207996DC0101900D922A95E1F7CE01855A5B
S11310309F4F2BE0FE01B496DC0101900D922A959E
S1131040E1F7CE018A599F4F2BE0FE01BF96DC01E8
S113105001900D922A95E1F7CE01CA96909317015B
S11310608093160185E0809312011A82FFCF2FD05E
S113107008F481E0089557D088F09F5790F0B92F75
S11310809927B751A0F0D1F0660F771F881F991FD9
S11310901AF0BA95C9F712C0B13081F05ED0B1E050
S11310A008955BC0672F782F8827B85F39F0B93F60
S11310B0CCF3869577956795B395D9F73EF49095DB
S11310C08095709561957F4F8F4F9F4F0895990F2D
S11310D00008550FAA0BE0E8FEEF16161706E807FE
S11310E0F907C0F012161306E407F50798F0621B1F
S11310F0730B840B950B39F40A2661F0232B242BF4
S1131100252B21F408950A2609F4A140A6958FEF12
S1131110811D811D089557FD9058440F551F59F0A6
S11311205F3F71F04795880F97FB991F61F09F3FD0
S113113079F087950895121613061406551FF2CFF9
S11311404695F1DF08C0161617061806991FF1CF49
S113115086957105610508940895E894BB27662770
S11311607727CB0197F90895B2DF08F48FEF08953C
S11311700BD078C069D028F06ED018F0952309F010
S11311805AC05FC01124EACFC6DFA0F3959FD1F304
S1131190950F50E0551F629FF001729FBB27F00D21
S11311A0B11D639FAA27F00DB11DAA1F649F662776
S11311B0B00DA11D661F829F2227B00DA11D621FC5
S11311C0739FB00DA11D621F839FA00D611D221F7F
S11311D0749F3327A00D611D231F849F600D211D63
S11311E0822F762F6A2F11249F5750408AF0E1F006
S11311F088234AF0EE0FFF1FBB1F661F771F881F4F
S113120091505040A9F79E3F510570F014C0A6CFED
S11312105F3FECF3983EDCF3869577956795B79539
S1131220F795E7959F5FC1F7FE2B880F911D969563
S1131230879597F9089597F99F6780E870E060E0D3
S113124008959FEF80EC089500240A94161617065B
S113125018060906089500240A94121613061406A3
S113126005060895092E0394000C11F4882352F006
S1131270BB0F40F4BF2B11F460FF04C06F5F7F4FBE
S11312808F4F9F4F0895A29FB001B39FC001A39FAA
S1131290700D811D1124911DB29F700D811D1124AB
S10B12A0911D0895F894FFCF9D
S10712A8010000003D
S9030000FC
