S021000043533132324120437573746F6D204C61622050726F6A6563742E73726563D6
S113000045C0000060C000005EC000005CC000008D
S11300105AC0000058C0000056C0000054C0000080
S113002052C0000050C000004EC000004CC0000090
S11300304AC00000A9C2000046C0000044C000003D
S113004042C0000040C000003EC000003CC00000B0
S11300503AC0000038C0000036C0000034C00000C0
S113006032C0000030C000002EC000002CC00000D0
S11300702AC0000028C0000026C0000024C00000E0
S113008022C0000020C000001EC0000011241FBEBA
S1130090CFEFD0E4DEBFCDBF11E0A0E0B1E0E8E7F0
S11300A0FBE000E00BBF02C007900D92A430B10743
S11300B0D9F721E0A4E0B1E001C01D92AE31B2074E
S11300C0E1F780D457C59CCFCF93DF93CDB7DEB78C
S11300D08CE790E020910501FC0120838AE790E001
S11300E023ECFC0120830000DF91CF910895CF938E
S11300F0DF931F92CDB7DEB789838981883048F4B6
S11301008981809305018CE790E020910501FC0131
S1130110208300000F90DF91CF910895CF93DF9358
S1130120CDB7DEB700008AE790E0FC018081882F1C
S113013090E080719927892BB1F38AE790E02FEF43
S1130140FC0120830000DF91CF910895CF93DF93CA
S1130150CDB7DEB78AE790E02AE730E0F9012081E5
S11301602064FC01208300008AE790E0FC01808188
S1130170882F90E080719927892BB1F38AE790E06A
S11301802AE730E0F90120812F7BFC01208388E7F6
S113019090E0FC018081918196958795969587954D
S11301A0DF91CF910895CF93DF9300D0CDB7DEB721
S11301B09A83898389819A818130910581F0823083
S11301C0910541F0892B81F481E090E09A83898341
S11301D07BDF0DC082E090E09A83898308C081E0D0
S11301E090E09A83898303C01A821982000089816E
S11301F09A818130910541F08230910519F0892B63
S113020079F00FC08BDF0DC080E071DF9FDF829536
S11302108F709FE0292F281B822F8093040101C037
S1130220000089819A810F900F90DF91CF910895FA
S1130230CF93DF9300D0CDB7DEB79A8389838981CA
S11302409A818130910561F08230910509F494C05E
S1130250892B09F096C081E090E09A83898394C049
S113026081E090E09A83898381E041DF6FDF8295AA
S11302708F708093080182E03ADF68DF82958F7087
S11302808093090180910C018823D9F080910D019C
S11302908823B9F480910801873040F480910901E2
S11302A0873020F481E080930E0155C080910801CD
S11302B0873020F482E080930E014DC010920E012D
S11302C04AC080910D018823D9F080910C018823C4
S11302D0B9F480910801873040F480910901873096
S11302E020F481E080930E0136C0809109018730AB
S11302F020F482E080930E012EC010920E012BC0D8
S113030080910C01882339F480910D01882319F41C
S113031010920E0120C080910801873058F480911A
S11303200901883038F081E080930E0181E08093E8
S11303300C0111C080910801883058F080910901A6
S1130340873038F481E080930E0181E080930D01C1
S113035002C010920E019091090181E0973008F0DB
S113036080E080930C019091080181E0973008F0BF
S113037080E080930D0108C082E090E09A83898335
S113038003C01A821982000089819A818130910503
S113039031F082309105A1F0892BD1F016C0809103
S11303A00B01282F30E080910A01882F90E0982FCC
S11303B08827822B932B909307018093060109C011
S11303C082E090E09A83898304C01A82198201C072
S11303D0000089819A810F900F90DF91CF91089549
S11303E00F931F93CF93DF93CDB7DEB71092150110
S11303F0BEC0209117013091180180911501482F3A
S113040050E06BE0649FC001659F900D1124820F42
S1130410931FFC0125813681478150856091170126
S11304207091180180911501E82FF0E0ABE0AE9FC8
S1130430C001AF9F900D1124860F971FFC0181818D
S11304409281A381B481281739074A075B0708F40E
S113045052C0209117013091180180911501482F45
S113046050E06BE0649FC001659F900D11248901E9
S1130470080F191F2091170130911801809115015F
S1130480482F50E06BE0649FC001659F900D1124DC
S1130490820F931FFC0121853285409117015091F1
S11304A0180180911501682F70E0EBE0E69FC00110
S11304B0E79F900D1124840F951FFC018081082E65
S11304C0000C990BF9010995F8018083209117011B
S11304D03091180180911501482F50E06BE0649F22
S11304E0C001659F900D1124820F931FFC0115829A
S11304F0168217821086209117013091180180917D
S11305001501482F50E06BE0649FC001659F900D7A
S11305101124B901680F791F209117013091180136
S113052080911501482F50E0EBE0E49FC001E59F66
S1130530900D1124820F931FFC0125813681478180
S113054050858091000190910101A0910201B09128
S11305500301820F931FA41FB51FFB01858396839C
S1130560A783B087809115018F5F809315019091C7
S1130570150180911301981708F43BCF0000DF9117
S1130580CF911F910F9108951F920F9200905F00D9
S11305900F92112400905B000F922F933F934F937F
S11305A05F936F937F938F939F93AF93BF93EF93D7
S11305B0FF93CF93DF93CDB7DEB780910F01909176
S11305C01001A0911101B09112010197A109B10983
S11305D080930F0190931001A0931101B093120125
S11305E080910F0190911001A0911101B09112011D
S11305F0892B8A2B8B2B89F4F3DE80910001909157
S11306000101A0910201B091030180930F01909325
S11306101001A0931101B09312010000DF91CF915A
S1130620FF91EF91BF91AF919F918F917F916F91C6
S11306305F914F913F912F910F9000925B000F902B
S113064000925F000F901F901895CF93DF9300D016
S113065000D0CDB7DEB769837A838B839C8389818D
S11306609A81AB81BC818093000190930101A09396
S11306700201B09303018091000190910101A091C6
S11306800201B091030180930F0190931001A09394
S11306901101B093120100000F900F900F900F9072
S11306A0DF91CF910895CF93DF93CDB7DEB781E883
S11306B090E02BE0FC01208388E890E02DE730E017
S11306C0FC01318320838FE690E022E0FC0120834B
S11306D084E890E0FC0111821082809100019091E5
S11306E00101A0910201B091030180930F01909345
S11306F01001A0931101B09312018FE590E02FE552
S113070030E0F90120812068FC0120830000DF91A2
S1130710CF910895CF93DF9300D0CDB7DEB79A83FE
S1130720898389819A818130910551F082309105C4
S1130730D9F0892B69F581E090E09A8389832BC0F5
S113074086E290E0FC018081882F90E081709927F7
S1130750892B29F482E090E09A8389831CC081E08C
S113076090E09A83898317C086E290E0FC0180813F
S1130770882F90E081709927892B29F081E090E0FF
S11307809A83898308C082E090E09A83898303C0B6
S11307901A821982000089819A818130910531F091
S11307A08230910549F0892B69F00DC080911401C4
S11307B08E7F8093140107C080911401816080931F
S11307C0140101C0000089819A810F900F90DF917C
S11307D0CF910895CF93DF9300D0CDB7DEB79A833E
S11307E0898389819A818130910551F08230910504
S11307F0D9F0892B69F581E090E09A8389832BC035
S113080086E290E0FC018081882F90E08270992735
S1130810892B29F482E090E09A8389831CC081E0CB
S113082090E09A83898317C086E290E0FC0180817E
S1130830882F90E082709927892B29F081E090E03D
S11308409A83898308C082E090E09A83898303C0F5
S11308501A821982000089819A818130910531F0D0
S11308608230910549F0892B69F00DC08091140103
S11308708D7F8093140107C080911401826080935E
S1130880140101C0000089819A810F900F90DF91BB
S1130890CF910895CF93DF9300D0CDB7DEB79A837D
S11308A0898389819A818130910591F18230910502
S11308B009F43FC0892BD1F581E290E0FC0110825C
S11308C082E290E02FEFFC01208384E290E02FEF9E
S11308D0FC01208385E290E0FC01108287E290E035
S11308E0FC01108288E290E02FEFFC0120838AE271
S11308F090E02FEFFC0120838BE290E0FC0110825A
S113090082E38093160181E090E09A83898312C088
S113091080911601882329F482E090E09A838983E8
S113092009C081E090E09A83898304C01A82198205
S113093001C0000089819A818130910551F0823093
S11309409105C1F1892B99F581E090E09A8389831F
S113095032C085E290E03091040120911401322BE1
S113096020910C01232B422F20910D01222F30E0E6
S1130970220F331F422B20910E01222F30E0220F31
S1130980331F220F331F242BFC01208388E790E0C0
S1130990FC0180819181892B31F480911601815071
S11309A08093160108C082E38093160104C01A8262
S11309B0198201C0000089819A810F900F90DF9104
S11309C0CF910895CF93DF93CDB7DEB7C057D10948
S11309D00FB6F894DEBF0FBECDBF84E689831B82B9
S11309E08981882F90E0A0E0B0E088879987AA8762
S11309F0BB878981882F90E0A0E0B0E08C839D8341
S1130A00AE83BF838AE494E09D878C871E8683ED42
S1130A1090E0988F8F8B8981882F90E0A0E0B0E0E0
S1130A208B8B9C8BAD8BBE8B8981882F90E0A0E053
S1130A30B0E08F87988BA98BBA8B8981882F90E03F
S1130A40A0E0B0E08093000190930101A093020123
S1130A50B0930301198E8981882F90E0A0E0B0E063
S1130A608E8F9F8FA8A3B9A38981882F90E0A0E0DF
S1130A70B0E08A8F9B8FAC8FBD8F8AE893E09BA3F5
S1130A808AA31CA28981882F90E0A0E0B0E089A706
S1130A909AA7ABA7BCA78981882F90E0A0E0B0E01B
S1130AA08DA39EA3AFA3B8A78AEE93E09EA78DA7BC
S1130AB01FA689818695882F90E0A0E0B0E08CABDA
S1130AC09DABAEABBFAB8981882F90E0A0E0B0E0D6
S1130AD088AB99ABAAABBBAB88E191E099AF88AF87
S1130AE089818695882F90E0A0E0B0E0BC01CD011B
S1130AF0ACDDD9DD8BE0FE013396DE01DA960190A0
S1130B000D928A95E1F7CE018B5B9F4F2BE0FE019E
S1130B103E96DC0101900D922A95E1F7CE01805BAF
S1130B209F4F2BE0FE017996DC0101900D922A95EE
S1130B30E1F7CE01855A9F4F2BE0FE01B496DC010C
S1130B4001900D922A95E1F7CE018A599F4F2BE02F
S1130B50FE01BF96DC0101900D922A95E1F7CE01CA
S1130B60CA96909318018093170185E0809313012E
S10B0B701A82FFCFF894FFCFB5
S1070B780100000074
S9030000FC
