:1000000045C0000060C000005EC000005CC0000091
:100010005AC0000058C0000056C0000054C0000084
:1000200052C0000050C000004EC000004CC0000094
:100030004AC00000D8C2000046C0000044C0000012
:1000400042C0000040C000003EC000003CC00000B4
:100050003AC0000038C0000036C0000034C00000C4
:1000600032C0000030C000002EC000002CC00000D4
:100070002AC0000028C0000026C0000024C00000E4
:1000800022C0000020C000001EC0000011241FBEBE
:10009000CFEFD0E4DEBFCDBF11E0A0E0B1E0E4EFF0
:1000A000FCE000E00BBF02C007900D92A430B10746
:1000B000D9F721E0A4E0B1E001C01D92AC31B20754
:1000C000E1F738D515C69CCFCF93DF93CDB7DEB718
:1000D0008CE790E020910501FC0120838AE790E005
:1000E00023ECFC0120830000DF91CF910895CF9392
:1000F000DF931F92CDB7DEB789838981883048F4BA
:100100008981809305018CE790E020910501FC0135
:10011000208300000F90DF91CF910895CF93DF935C
:10012000CDB7DEB700008AE790E0FC018081882F20
:1001300090E080719927892BB1F38AE790E02FEF47
:10014000FC0120830000DF91CF910895CF93DF93CE
:10015000CDB7DEB78AE790E02AE730E0F9012081E9
:100160002064FC01208300008AE790E0FC0180818C
:10017000882F90E080719927892BB1F38AE790E06E
:100180002AE730E0F90120812F7BFC01208388E7FA
:1001900090E0FC0180819181969587959695879551
:1001A000DF91CF910895CF93DF9300D0CDB7DEB725
:1001B0009A83898389819A818130910581F0823087
:1001C000910541F0892B81F481E090E09A83898345
:1001D0007BDF0DC082E090E09A83898308C081E0D4
:1001E00090E09A83898303C01A8219820000898172
:1001F0009A818130910541F08230910519F0892B67
:1002000079F00FC08BDF0DC080E071DF9FDF82953A
:100210008F709FE0292F281B822F8093040101C03B
:10022000000089819A810F900F90DF91CF910895FE
:10023000CF93DF9300D0CDB7DEB79A8389838981CE
:100240009A8181309105C1F082309105D1F0892BDE
:10025000E9F410920F0180910F01809310018091B9
:10026000100180931101809111018093120181E0AE
:1002700090E09A8389830DC081E090E09A8389831E
:1002800008C082E090E09A83898303C01A821982B1
:10029000000089819A818130910541F08230910579
:1002A00009F4BDC0892B09F4C2C0BEC083E290E04E
:1002B000FC018081882F90E082709927892B11F4AE
:1002C0008AE001C080E08093120183E290E0FC01AB
:1002D0008081882F90E084709927892B11F489E020
:1002E00001C080E08093110183E290E0FC018081F5
:1002F000882F90E088709927892B11F486E001C03F
:1003000080E08093100183E290E0FC018081882FDF
:1003100090E080719927892B11F485E001C080E07D
:1003200080930F0180910701809306019091120143
:1003300080911101982B80911001982B80910F01D1
:10034000892B8093070180910701882309F464C0F9
:100350009091070180910601981709F45DC0809182
:100360000601882309F458C080910601882F90E087
:1003700088709927892B61F080910701882F90E080
:1003800088709927892B21F08091070180930701BC
:1003900080910601882F90E084709927892B69F05D
:1003A00080910701882F90E084709927892B29F08C
:1003B000809107018F7E8093070180910601882F2D
:1003C00090E082709927892B69F080910701882F2E
:1003D00090E082709927892B29F0809107018B7F0B
:1003E0008093070180910601882F90E08170992702
:1003F000892B69F080910701882F90E081709927FF
:10040000892B29F0809107018D7F809307018091CE
:100410000701809308010CC01092080109C082E016
:1004200090E09A83898304C01A82198201C0000077
:1004300089819A810F900F90DF91CF9108950F934A
:100440001F93CF93DF93CDB7DEB710921301BEC0D9
:10045000209115013091160180911301482F50E031
:100460006BE0649FC001659F900D1124820F931F64
:10047000FC0125813681478150856091150170917D
:10048000160180911301E82FF0E0ABE0AE9FC001B0
:10049000AF9F900D1124860F971FFC0181819281DF
:1004A000A381B481281739074A075B0708F452C0B3
:1004B000209115013091160180911301482F50E0D1
:1004C0006BE0649FC001659F900D11248901080FA6
:1004D000191F209115013091160180911301482FA9
:1004E00050E06BE0649FC001659F900D1124820F66
:1004F000931FFC0121853285409115015091160111
:1005000080911301682F70E0EBE0E69FC001E79F48
:10051000900D1124840F951FFC018081082E000C82
:10052000990BF9010995F80180832091150130910B
:10053000160180911301482F50E06BE0649FC001C9
:10054000659F900D1124820F931FFC011582168266
:1005500017821086209115013091160180911301A8
:10056000482F50E06BE0649FC001659F900D1124FF
:10057000B901680F791F2091150130911601809102
:100580001301482F50E0EBE0E49FC001E59F900D80
:100590001124820F931FFC012581368147815085EC
:1005A0008091000190910101A0910201B09103019D
:1005B000820F931FA41FB51FFB0185839683A7831A
:1005C000B087809113018F5F809313019091130185
:1005D00080910D01981708F43BCF0000DF91CF9177
:1005E0001F910F9108951F920F9200905F000F923C
:1005F000112400905B000F922F933F934F935F93D2
:100600006F937F938F939F93AF93BF93EF93FF93DA
:10061000CF93DF93CDB7DEB78091090190910A01A6
:10062000A0910B01B0910C010197A109B109809330
:10063000090190930A01A0930B01B0930C018091E2
:10064000090190910A01A0910B01B0910C01892B35
:100650008A2B8B2B89F4F3DE8091000190910101AC
:10066000A0910201B09103018093090190930A01C6
:10067000A0930B01B0930C010000DF91CF91FF918B
:10068000EF91BF91AF919F918F917F916F915F910A
:100690004F913F912F910F9000925B000F9000922D
:1006A0005F000F901F901895CF93DF9300D000D07C
:1006B000CDB7DEB769837A838B839C8389819A81E6
:1006C000AB81BC818093000190930101A093020152
:1006D000B09303018091000190910101A09102016A
:1006E000B09103018093090190930A01A0930B013B
:1006F000B0930C0100000F900F900F900F90DF91BE
:10070000CF910895CF93DF93CDB7DEB781E890E026
:100710002BE0FC01208388E890E02DE730E0FC012D
:10072000318320838FE690E022E0FC01208384E87F
:1007300090E0FC01118210828091000190910101F2
:10074000A0910201B09103018093090190930A01E5
:10075000A0930B01B0930C018FE590E02FE530E002
:10076000F90120812068FC0120830000DF91CF91F6
:100770000895CF93DF9300D0CDB7DEB79A838983F6
:1007800089819A818130910551F082309105D9F0AB
:10079000892B69F581E090E09A8389832BC083E2FD
:1007A00090E0FC018081882F90E080729927892B4E
:1007B00029F482E090E09A8389831CC081E090E074
:1007C0009A83898317C083E290E0FC018081882F9F
:1007D00090E080729927892B29F081E090E09A833C
:1007E000898308C082E090E09A83898303C01A82DB
:1007F0001982000089819A818130910531F082301F
:10080000910549F0892B69F00DC080910E018E7F12
:1008100080930E0107C080910E01816080930E01CC
:1008200001C0000089819A810F900F90DF91CF91D4
:100830000895CF93DF9300D0CDB7DEB79A83898335
:1008400089819A818130910551F082309105D9F0EA
:10085000892B69F581E090E09A8389832BC083E23C
:1008600090E0FC018081882F90E080749927892B8B
:1008700029F482E090E09A8389831CC081E090E0B3
:100880009A83898317C083E290E0FC018081882FDE
:1008900090E080749927892B29F081E090E09A8379
:1008A000898308C082E090E09A83898303C01A821A
:1008B0001982000089819A818130910531F082305E
:1008C000910549F0892B69F00DC080910E018D7F53
:1008D00080930E0107C080910E01826080930E010B
:1008E00001C0000089819A810F900F90DF91CF9114
:1008F0000895CF93DF931F92CDB7DEB789838981A7
:100900008130E1F081EC90E021EC30E0F9012081D0
:100910002861FC01208382EC90E022EC30E0F901B8
:1009200020812660FC01208384EC90E023E3FC011D
:10093000208385EC90E0FC0110821BC089EC90E0E4
:1009400029EC30E0F90120812861FC0120838AEC48
:1009500090E02AEC30E0F90120812660FC01208340
:100960008CEC90E023E3FC0120838DEC90E0FC0113
:10097000108200000F90DF91CF910895CF93DF9305
:100980001F92CDB7DEB789838981813031F080EC49
:1009900090E0FC018081807205C088EC90E0FC0151
:1009A000808180720F90DF91CF910895CF93DF9374
:1009B00000D0CDB7DEB789836A838A81813089F020
:1009C000000080EC90E0FC018081882F90E0807234
:1009D0009927892BB1F386EC90E02981FC012083D3
:1009E00010C0000088EC90E0FC018081882F90E02E
:1009F00080729927892BB1F38EEC90E02981FC015C
:100A0000208300000F900F90DF91CF910895CF9336
:100A1000DF9300D01F92CDB7DEB79B838A838A8194
:100A20009B8181309105A1F18230910509F441C08B
:100A3000892BE1F581E290E0FC01108282E290E0F6
:100A40002FEFFC01208384E290E0FC01108285E21C
:100A500090E02FEFFC01208387E290E0FC01108200
:100A600088E290E02FEFFC0120838AE290E02FEFF4
:100A7000FC0120838BE290E0FC01108282E38093F2
:100A8000140180E036DF81E090E09B838A8312C00E
:100A900080911401882329F482E090E09B838A836B
:100AA00009C081E090E09B838A8304C01B821A8284
:100AB00001C000008A819B818130910551F0823014
:100AC000910569F1892B41F581E090E09B838A8350
:100AD00029C080E053DF882321F180910E01882F07
:100AE00090E0880F991F880F991F982F809104011B
:100AF00086958695292F282B80910801882F90E0D4
:100B000082959295907F9827807F9827822B898362
:100B100060E089814BDF05C01B821A8203C00000A0
:100B200001C000008A819B810F900F900F90DF9190
:100B3000CF910895CF93DF93CDB7DEB7CF56D109CC
:100B40000FB6F894DEBF0FBECDBF80E989831A824D
:100B50008981882F90E0A0E0B0E08F839887A987F3
:100B6000BA878981882F90E0A0E0B0E08B839C83D6
:100B7000AD83BE8387E095E09C878B871D8683EDE0
:100B800090E09F8B8E8B89818695882F90E0A0E0E6
:100B9000B0E08A8B9B8BAC8BBD8B89818695882F2F
:100BA00090E0A0E0B0E08E879F87A88BB98B898109
:100BB000882F90E0A0E0B0E08093000190930101C5
:100BC000A0930201B0930301188E89818695882F26
:100BD00090E0A0E0B0E08D8F9E8FAF8FB8A38981A9
:100BE0008695882F90E0A0E0B0E0898F9A8FAB8F38
:100BF000BC8F89EB93E09AA389A31BA28981869578
:100C0000882F90E0A0E0B0E088A799A7AAA7BBA78B
:100C100089818695882F90E0A0E0B0E08CA39DA309
:100C2000AEA3BFA389E194E09DA78CA71EA68981EE
:100C30008695882F90E0A0E0B0E08BAB9CABADAB8D
:100C4000BEAB89818695882F90E0A0E0B0E08FA7A9
:100C500098ABA9ABBAAB88E191E098AF8FAB898133
:100C60008695882F90E0A0E0B0E0BC01CD011CDDAE
:100C700049DD8BE0FE013296DE01D99601900D929E
:100C80008A95E1F7CE018C5B9F4F2BE0FE013D96EC
:100C9000DC0101900D922A95E1F7CE01815B9F4F17
:100CA0002BE0FE017896DC0101900D922A95E1F788
:100CB000CE01865A9F4F2BE0FE01B396DC010190D6
:100CC0000D922A95E1F7CE018B599F4F2BE0FE0143
:100CD000BE96DC0101900D922A95E1F7CE01C996EE
:100CE000909316018093150185E080930D01FFCF4D
:040CF000F894FFCFA6
:040CF40001000000FB
:00000001FF
