:1000000045C0000060C000005EC000005CC0000091
:100010005AC0000058C0000056C0000054C0000084
:1000200052C0000050C000004EC000004CC0000094
:100030004AC000004FC2000046C0000044C000009B
:1000400042C0000040C000003EC000003CC00000B4
:100050003AC0000038C0000036C0000034C00000C4
:1000600032C0000030C000002EC000002CC00000D4
:100070002AC0000028C0000026C0000024C00000E4
:1000800022C0000020C000001EC0000011241FBEBE
:10009000CFEFD0E4DEBFCDBF11E0A0E0B1E0E0E5FE
:1000A000FCE000E00BBF02C007900D92A430B10746
:1000B000D9F721E0A4E0B1E001C01D92AE31B20752
:1000C000E1F7ECD4C3C59CCFCF93DF93CDB7DEB7B8
:1000D0008CE790E020910501FC0120838AE790E005
:1000E00023ECFC0120830000DF91CF910895CF9392
:1000F000DF931F92CDB7DEB789838981883048F4BA
:100100008981809305018CE790E020910501FC0135
:10011000208300000F90DF91CF910895CF93DF935C
:10012000CDB7DEB700008AE790E0FC018081882F20
:1001300090E080719927892BB1F38AE790E02FEF47
:10014000FC0120830000DF91CF910895CF93DF93CE
:10015000CDB7DEB78AE790E02AE730E0F9012081E9
:100160002064FC01208300008AE790E0FC0180818C
:10017000882F90E080719927892BB1F38AE790E06E
:100180002AE730E0F90120812F7BFC01208388E7FA
:1001900090E0FC0180819181969587959695879551
:1001A000DF91CF910895CF93DF9300D0CDB7DEB725
:1001B0009A83898389819A818130910581F0823087
:1001C000910541F0892B81F481E090E09A83898345
:1001D0007BDF0DC082E090E09A83898308C081E0D4
:1001E00090E09A83898303C01A8219820000898172
:1001F0009A818130910541F08230910519F0892B67
:1002000079F00FC08BDF0DC080E071DF9FDF82953A
:100210008F709FE0292F281B822F8093040101C03B
:10022000000089819A810F900F90DF91CF910895FE
:10023000CF93DF9300D0CDB7DEB79A8389838981CE
:100240009A818130910561F08230910509F449C0AD
:10025000892B09F04BC081E090E09A83898349C0E3
:1002600081E090E09A83898381E041DF6FDF8295AE
:100270008F708093060182E03ADF68DF82958F708D
:10028000809307019091070181E0973008F080E0AA
:10029000809308019091060181E0973008F080E09A
:1002A0008093090180E290E0FC018081882F90E03A
:1002B0008071992721E0892B09F420E0822F809317
:1002C0000B0180E290E0FC018081882F90E0887033
:1002D000992721E0892B09F420E0822F80930C01DB
:1002E00008C082E090E09A83898303C01A82198251
:1002F000000089819A818130910571F082309105E9
:1003000019F0892B59F005C082E090E09A83898327
:1003100006C01A82198203C0000001C00000898152
:100320009A810F900F90DF91CF9108950F931F93B3
:10033000CF93DF93CDB7DEB710921401BEC02091EA
:1003400017013091180180911401482F50E06BE0A3
:10035000649FC001659F900D1124820F931FFC01C3
:100360002581368147815085609117017091180170
:1003700080911401E82FF0E0ABE0AE9FC001AF9F89
:10038000900D1124860F971FFC0181819281A3811A
:10039000B481281739074A075B0708F452C0209137
:1003A00017013091180180911401482F50E06BE043
:1003B000649FC001659F900D11248901080F191FCA
:1003C000209117013091180180911401482F50E0BD
:1003D0006BE0649FC001659F900D1124820F931FF5
:1003E000FC012185328540911701509118018091BF
:1003F0001401682F70E0EBE0E69FC001E79F900DCD
:100400001124840F951FFC018081082E000C990B8C
:10041000F9010995F80180832091170130911801A5
:1004200080911401482F50E06BE0649FC001659FEC
:10043000900D1124820F931FFC01158216821782E2
:100440001086209117013091180180911401482FD6
:1004500050E06BE0649FC001659F900D1124B901CD
:10046000680F791F209117013091180180911401B4
:10047000482F50E0EBE0E49FC001E59F900D112470
:10048000820F931FFC012581368147815085809121
:10049000000190910101A0910201B0910301820F2E
:1004A000931FA41FB51FFB0185839683A783B08785
:1004B000809114018F5F80931401909114018091B9
:1004C0001201981708F43BCF0000DF91CF911F91E4
:1004D0000F9108951F920F9200905F000F921124C8
:1004E00000905B000F922F933F934F935F936F9316
:1004F0007F938F939F93AF93BF93EF93FF93CF938C
:10050000DF93CDB7DEB780910E0190910F01A091DE
:100510001001B09111010197A109B10980930E0159
:1005200090930F01A0931001B093110180910E01DF
:1005300090910F01A0911001B0911101892B8A2B8C
:100540008B2B89F4F3DE8091000190910101A09141
:100550000201B091030180930E0190930F01A093CB
:100560001001B09311010000DF91CF91FF91EF9145
:10057000BF91AF919F918F917F916F915F914F91BB
:100580003F912F910F9000925B000F9000925F00BF
:100590000F901F901895CF93DF9300D000D0CDB768
:1005A000DEB769837A838B839C8389819A81AB814F
:1005B000BC818093000190930101A0930201B0934C
:1005C00003018091000190910101A0910201B0917D
:1005D000030180930E0190930F01A0931001B0933B
:1005E000110100000F900F900F900F90DF91CF91AD
:1005F0000895CF93DF93CDB7DEB781E890E02BE08D
:10060000FC01208388E890E02DE730E0FC01318395
:1006100020838FE690E022E0FC01208384E890E0D4
:10062000FC01118210828091000190910101A09142
:100630000201B091030180930E0190930F01A093EA
:100640001001B09311018FE590E02FE530E0F90142
:1006500020812068FC0120830000DF91CF91089564
:10066000CF93DF9300D0CDB7DEB79A83898389819A
:100670009A818130910551F082309105D9F0892B12
:1006800069F581E090E09A8389832BC086E290E04F
:10069000FC018081882F90E081709927892B29F4B3
:1006A00082E090E09A8389831CC081E090E09A8385
:1006B000898317C086E290E0FC018081882F90E05A
:1006C00081709927892B29F081E090E09A838983B2
:1006D00008C082E090E09A83898303C01A8219825D
:1006E000000089819A818130910531F08230910535
:1006F00049F0892B69F00DC0809113018E7F8093A2
:10070000130107C08091130181608093130101C020
:10071000000089819A810F900F90DF91CF91089509
:10072000CF93DF9300D0CDB7DEB79A8389838981D9
:100730009A818130910551F082309105D9F0892B51
:1007400069F581E090E09A8389832BC086E290E08E
:10075000FC018081882F90E082709927892B29F4F1
:1007600082E090E09A8389831CC081E090E09A83C4
:10077000898317C086E290E0FC018081882F90E099
:1007800082709927892B29F081E090E09A838983F0
:1007900008C082E090E09A83898303C01A8219829C
:1007A000000089819A818130910531F08230910574
:1007B00049F0892B69F00DC0809113018D7F8093E2
:1007C000130107C08091130182608093130101C05F
:1007D000000089819A810F900F90DF91CF91089549
:1007E000CF93DF931F92CDB7DEB7898389818130A4
:1007F000E1F081EC90E021EC30E0F901208128610A
:10080000FC01208382EC90E022EC30E0F9012081B1
:100810002660FC01208384EC90E023E3FC0120832C
:1008200085EC90E0FC0110821BC089EC90E029EC83
:1008300030E0F90120812861FC0120838AEC90E0FE
:100840002AEC30E0F90120812660FC0120838CEC49
:1008500090E023E3FC0120838DEC90E0FC0110820A
:1008600000000F90DF91CF910895CF93DF931F92F7
:10087000CDB7DEB789838981813031F080EC90E09B
:10088000FC018081807205C088EC90E0FC018081D1
:1008900080720F90DF91CF910895CF93DF931F92D5
:1008A000CDB7DEB7898389818130A1F006C086EC9F
:1008B00090E0FC0180818093150180EC90E0FC01C8
:1008C00080818823A4F30CC08EEC90E0FC01808131
:1008D0008093150188EC90E0FC0180818823A4F3CB
:1008E00000000F90DF91CF910895CF93DF9300D058
:1008F000CDB7DEB789836A838A81813089F00000B1
:1009000080EC90E0FC018081882F90E08072992734
:10091000892BB1F386EC90E02981FC01208310C083
:10092000000088EC90E0FC018081882F90E08072CC
:100930009927892BB1F38EEC90E02981FC0120836B
:1009400000000F900F90DF91CF910895CF93DF9328
:1009500000D0CDB7DEB79A83898389819A818130AF
:100960009105A1F18230910509F441C0892BE1F58F
:1009700081E290E0FC01108282E290E02FEFFC0126
:10098000208384E290E02FEFFC01208385E290E059
:10099000FC01108287E290E0FC01108288E290E086
:1009A0002FEFFC0120838AE290E02FEFFC012083EF
:1009B0008BE290E0FC01108282E38093160181E0DB
:1009C0000FDF81E090E09A83898312C08091160145
:1009D000882329F482E090E09A83898309C081E02A
:1009E00090E09A83898304C01A82198201C00000B2
:1009F00089819A818130910561F08230910509F4F5
:100A000045C0892B09F03FC081E090E09A8389833B
:100A10003EC085E290E03091040120911301322B19
:100A200020910D01232B422F20910A01222F30E02B
:100A3000220F331F220F331F242BFC01208388E752
:100A400090E0FC0180819181892B69F480910401FF
:100A5000882349F480911301882329F48091160199
:100A600081508093160181E000DF882341F081E00E
:100A700014DF80911301805D61E037DF08C082E3FD
:100A80008093160104C01A82198201C00000898176
:100A90009A810F900F90DF91CF910895CF93DF93BC
:100AA000CDB7DEB7C057D1090FB6F894DEBF0FBE81
:100AB000CDBF84E689831B828981882F90E0A0E0E6
:100AC000B0E088879987AA87BB878981882F90E0C3
:100AD000A0E0B0E08C839D83AE83BF8386EA94E080
:100AE0009D878C871E8683ED90E0988F8F8B898100
:100AF000882F90E0A0E0B0E08B8B9C8BAD8BBE8B01
:100B00008981882F90E0A0E0B0E08F87988BA98B37
:100B1000BA8B8981882F90E0A0E0B0E0809300013B
:100B200090930101A0930201B0930301198E898172
:100B3000882F90E0A0E0B0E08E8F9F8FA8A3B9A38C
:100B40008981882F90E0A0E0B0E08A8F9B8FAC8FE6
:100B5000BD8F80E393E09BA38AA31CA28981882F89
:100B600090E0A0E0B0E089A79AA7ABA7BCA78981D5
:100B7000882F90E0A0E0B0E08DA39EA3AFA3B8A71C
:100B800080E993E09EA78DA71FA689818695882F6F
:100B900090E0A0E0B0E08CAB9DABAEABBFAB898189
:100BA000882F90E0A0E0B0E088AB99ABAAABBBABDC
:100BB00088E191E099AF88AF89818695882F90E090
:100BC000A0E0B0E0BC01CD01E6DC13DD8BE0FE016E
:100BD0003396DE01DA9601900D928A95E1F7CE0107
:100BE0008B5B9F4F2BE0FE013E96DC0101900D9246
:100BF0002A95E1F7CE01805B9F4F2BE0FE017996AD
:100C0000DC0101900D922A95E1F7CE01855A9F4FA4
:100C10002BE0FE01B496DC0101900D922A95E1F7DC
:100C2000CE018A599F4F2BE0FE01BF96DC01019057
:100C30000D922A95E1F7CE01CA9690931801809300
:100C4000170185E0809312011A82FFCFF894FFCF3D
:040C5000010000009F
:00000001FF
